{
  "contractName": "Strings",
  "abi": [
    {
      "constant": true,
      "inputs": [
        {
          "name": "str",
          "type": "string"
        }
      ],
      "name": "length",
      "outputs": [
        {
          "name": "",
          "type": "uint256"
        }
      ],
      "payable": false,
      "stateMutability": "pure",
      "type": "function"
    },
    {
      "constant": true,
      "inputs": [
        {
          "name": "str1",
          "type": "string"
        },
        {
          "name": "str2",
          "type": "string"
        }
      ],
      "name": "concatenate",
      "outputs": [
        {
          "name": "",
          "type": "string"
        }
      ],
      "payable": false,
      "stateMutability": "pure",
      "type": "function"
    }
  ],
  "bytecode": "0x608060405234801561001057600080fd5b50610506806100206000396000f3fe608060405234801561001057600080fd5b5060043610610053576000357c010000000000000000000000000000000000000000000000000000000090048063266001d314610058578063436a66e714610223575b600080fd5b6101a86004803603604081101561006e57600080fd5b810190808035906020019064010000000081111561008b57600080fd5b82018360208201111561009d57600080fd5b803590602001918460018302840111640100000000831117156100bf57600080fd5b91908080601f016020809104026020016040519081016040528093929190818152602001838380828437600081840152601f19601f8201169050808301925050505050505091929192908035906020019064010000000081111561012257600080fd5b82018360208201111561013457600080fd5b8035906020019184600183028401116401000000008311171561015657600080fd5b91908080601f016020809104026020016040519081016040528093929190818152602001838380828437600081840152601f19601f8201169050808301925050505050505091929192905050506102f2565b6040518080602001828103825283818151815260200191508051906020019080838360005b838110156101e85780820151818401526020810190506101cd565b50505050905090810190601f1680156102155780820380516001836020036101000a031916815260200191505b509250505060405180910390f35b6102dc6004803603602081101561023957600080fd5b810190808035906020019064010000000081111561025657600080fd5b82018360208201111561026857600080fd5b8035906020019184600183028401116401000000008311171561028a57600080fd5b91908080601f016020809104026020016040519081016040528093929190818152602001838380828437600081840152601f19601f8201169050808301925050505050505091929192905050506104c9565b6040518082815260200191505060405180910390f35b6060808390506060839050606081518351016040519080825280601f01601f1916602001820160405280156103365781602001600182028038833980820191505090505b5090506060819050600080905060008090505b85518110156103fe57858181518110151561036057fe5b9060200101517f010000000000000000000000000000000000000000000000000000000000000090047f01000000000000000000000000000000000000000000000000000000000000000283838151811015156103b957fe5b9060200101907effffffffffffffffffffffffffffffffffffffffffffffffffffffffffffff1916908160001a90535081806001019250508080600101915050610349565b5060008090505b84518110156104ba57848181518110151561041c57fe5b9060200101517f010000000000000000000000000000000000000000000000000000000000000090047f010000000000000000000000000000000000000000000000000000000000000002838381518110151561047557fe5b9060200101907effffffffffffffffffffffffffffffffffffffffffffffffffffffffffffff1916908160001a90535081806001019250508080600101915050610405565b50819550505050505092915050565b60006060829050805191505091905056fea165627a7a72305820f918703d047e6a23f3be39595677e3dd21a4bd7ba403df564d2f2705afbc3ba80029",
  "source": "pragma solidity ^0.5.2;\r\n\r\ncontract Strings {\r\n    function length(string memory str) public pure returns (uint256) {\r\n        bytes memory str_bytes = bytes(str);\r\n        return str_bytes.length;\r\n    }\r\n\r\n    function concatenate(string memory str1, string memory str2)\r\n        public\r\n        pure\r\n        returns (string memory)\r\n    {\r\n        bytes memory str1_bytes = bytes(str1);\r\n        bytes memory str2_bytes = bytes(str2);\r\n        string memory str = new string(str1_bytes.length + str2_bytes.length);\r\n        bytes memory str_bytes = bytes(str);\r\n\r\n        uint256 j = 0;\r\n        for (uint256 i = 0; i < str1_bytes.length; i++) {\r\n            str_bytes[j] = str1_bytes[i];\r\n            j++;\r\n        }\r\n        for (uint256 i = 0; i < str2_bytes.length; i++) {\r\n            str_bytes[j] = str2_bytes[i];\r\n            j++;\r\n        }\r\n        return string(str_bytes);\r\n    }\r\n}\r\n",
  "sourcePath": "D:\\Github\\d-app-30\\project11\\contracts\\Strings.sol",
  "compiler": {
    "name": "solc",
    "version": "0.5.2+commit.1df8f40c.Emscripten.clang"
  },
  "schemaVersion": "3.4.3",
  "updatedAt": "2022-04-05T08:11:13.711Z",
  "networkType": "ethereum",
  "devdoc": {
    "methods": {}
  },
  "userdoc": {
    "methods": {}
  }
}