{
  "contractName": "Escrow",
  "abi": [
    {
      "constant": true,
      "inputs": [],
      "name": "payer",
      "outputs": [
        {
          "name": "",
          "type": "address"
        }
      ],
      "payable": false,
      "stateMutability": "view",
      "type": "function"
    },
    {
      "constant": true,
      "inputs": [],
      "name": "lawyer",
      "outputs": [
        {
          "name": "",
          "type": "address"
        }
      ],
      "payable": false,
      "stateMutability": "view",
      "type": "function"
    },
    {
      "constant": true,
      "inputs": [],
      "name": "amount",
      "outputs": [
        {
          "name": "",
          "type": "uint256"
        }
      ],
      "payable": false,
      "stateMutability": "view",
      "type": "function"
    },
    {
      "constant": true,
      "inputs": [],
      "name": "payee",
      "outputs": [
        {
          "name": "",
          "type": "address"
        }
      ],
      "payable": false,
      "stateMutability": "view",
      "type": "function"
    },
    {
      "inputs": [
        {
          "name": "_payer",
          "type": "address"
        },
        {
          "name": "_payee",
          "type": "address"
        },
        {
          "name": "_amount",
          "type": "uint256"
        }
      ],
      "payable": false,
      "stateMutability": "nonpayable",
      "type": "constructor"
    },
    {
      "constant": false,
      "inputs": [],
      "name": "deposit",
      "outputs": [],
      "payable": true,
      "stateMutability": "payable",
      "type": "function"
    },
    {
      "constant": false,
      "inputs": [],
      "name": "release",
      "outputs": [],
      "payable": false,
      "stateMutability": "nonpayable",
      "type": "function"
    },
    {
      "constant": true,
      "inputs": [],
      "name": "balanceOf",
      "outputs": [
        {
          "name": "",
          "type": "uint256"
        }
      ],
      "payable": false,
      "stateMutability": "view",
      "type": "function"
    }
  ],
  "bytecode": "0x608060405234801561001057600080fd5b5060405160608061072f8339810180604052606081101561003057600080fd5b81019080805190602001909291908051906020019092919080519060200190929190505050826000806101000a81548173ffffffffffffffffffffffffffffffffffffffff021916908373ffffffffffffffffffffffffffffffffffffffff16021790555081600160006101000a81548173ffffffffffffffffffffffffffffffffffffffff021916908373ffffffffffffffffffffffffffffffffffffffff16021790555033600260006101000a81548173ffffffffffffffffffffffffffffffffffffffff021916908373ffffffffffffffffffffffffffffffffffffffff160217905550806003819055505050506105ff806101306000396000f3fe60806040526004361061008d576000357c01000000000000000000000000000000000000000000000000000000009004806386d1a69f1161006b57806386d1a69f1461016b578063aa8c217c14610182578063ae90b213146101ad578063d0e30db0146102045761008d565b8063123119cd146100925780633bfb6e31146100e9578063722713f714610140575b600080fd5b34801561009e57600080fd5b506100a761020e565b604051808273ffffffffffffffffffffffffffffffffffffffff1673ffffffffffffffffffffffffffffffffffffffff16815260200191505060405180910390f35b3480156100f557600080fd5b506100fe610233565b604051808273ffffffffffffffffffffffffffffffffffffffff1673ffffffffffffffffffffffffffffffffffffffff16815260200191505060405180910390f35b34801561014c57600080fd5b50610155610259565b6040518082815260200191505060405180910390f35b34801561017757600080fd5b50610180610278565b005b34801561018e57600080fd5b5061019761041d565b6040518082815260200191505060405180910390f35b3480156101b957600080fd5b506101c2610423565b604051808273ffffffffffffffffffffffffffffffffffffffff1673ffffffffffffffffffffffffffffffffffffffff16815260200191505060405180910390f35b61020c610449565b005b6000809054906101000a900473ffffffffffffffffffffffffffffffffffffffff1681565b600260009054906101000a900473ffffffffffffffffffffffffffffffffffffffff1681565b60003073ffffffffffffffffffffffffffffffffffffffff1631905090565b6003543073ffffffffffffffffffffffffffffffffffffffff16311415156102eb576040517f08c379a000000000000000000000000000000000000000000000000000000000815260040180806020018281038252602f815260200180610584602f913960400191505060405180910390fd5b600260009054906101000a900473ffffffffffffffffffffffffffffffffffffffff1673ffffffffffffffffffffffffffffffffffffffff163373ffffffffffffffffffffffffffffffffffffffff161415156103b0576040517f08c379a000000000000000000000000000000000000000000000000000000000815260040180806020018281038252601d8152602001807f6f6e6c79206c61777965722063616e2072656c656173652066756e647300000081525060200191505060405180910390fd5b600160009054906101000a900473ffffffffffffffffffffffffffffffffffffffff1673ffffffffffffffffffffffffffffffffffffffff166108fc6003549081150290604051600060405180830381858888f1935050505015801561041a573d6000803e3d6000fd5b50565b60035481565b600160009054906101000a900473ffffffffffffffffffffffffffffffffffffffff1681565b6000809054906101000a900473ffffffffffffffffffffffffffffffffffffffff1673ffffffffffffffffffffffffffffffffffffffff163373ffffffffffffffffffffffffffffffffffffffff1614151561050d576040517f08c379a00000000000000000000000000000000000000000000000000000000081526004018080602001828103825260188152602001807f53656e646572206d75737420626520746865207061796572000000000000000081525060200191505060405180910390fd5b6003543073ffffffffffffffffffffffffffffffffffffffff163111151515610581576040517f08c379a00000000000000000000000000000000000000000000000000000000081526004018080602001828103825260218152602001806105b36021913960400191505060405180910390fd5b56fe63616e6e6f742072656c656173652066756e6473206265666f72652066756c6c20616d6f756e742069732073656e7443616e742073656e64206d6f7265207468616e20657363726f7720616d6f756e74a165627a7a72305820db25a5dcf1549ed1b295c34b8965a54b1af40974117f2dee31067c8ee43c9eab0029",
  "source": "pragma solidity ^0.5.2;\r\n\r\ncontract Escrow {\r\n    address public payer;\r\n    address payable public payee; //receiver\r\n    address public lawyer; // deployer of smart contract\r\n    uint256 public amount;\r\n\r\n    constructor(\r\n        address _payer,\r\n        address payable _payee,\r\n        uint256 _amount\r\n    ) public {\r\n        payer = _payer;\r\n        payee = _payee;\r\n        lawyer = msg.sender;\r\n        amount = _amount;\r\n    }\r\n\r\n    function deposit() public payable {\r\n        require(msg.sender == payer, \"Sender must be the payer\");\r\n        require(\r\n            address(this).balance <= amount,\r\n            \"Cant send more than escrow amount\"\r\n        );\r\n    }\r\n\r\n    function release() public {\r\n        require(\r\n            address(this).balance == amount,\r\n            \"cannot release funds before full amount is sent\"\r\n        );\r\n        require(msg.sender == lawyer, \"only lawyer can release funds\");\r\n        payee.transfer(amount);\r\n    }\r\n\r\n    function balanceOf() public view returns (uint256) {\r\n        return address(this).balance;\r\n    }\r\n}\r\n",
  "sourcePath": "D:\\Github\\d-app-30\\project10\\contracts\\Escrow.sol",
  "compiler": {
    "name": "solc",
    "version": "0.5.2+commit.1df8f40c.Emscripten.clang"
  },
  "schemaVersion": "3.4.3",
  "updatedAt": "2022-04-03T10:36:53.849Z",
  "networkType": "ethereum",
  "devdoc": {
    "methods": {}
  },
  "userdoc": {
    "methods": {}
  }
}