{
  "contractName": "DAO",
  "abi": [
    {
      "constant": true,
      "inputs": [
        {
          "name": "",
          "type": "uint256"
        }
      ],
      "name": "proposals",
      "outputs": [
        {
          "name": "id",
          "type": "uint256"
        },
        {
          "name": "name",
          "type": "string"
        },
        {
          "name": "amount",
          "type": "uint256"
        },
        {
          "name": "recipient",
          "type": "address"
        },
        {
          "name": "votes",
          "type": "uint256"
        },
        {
          "name": "end",
          "type": "uint256"
        },
        {
          "name": "executed",
          "type": "bool"
        }
      ],
      "payable": false,
      "stateMutability": "view",
      "type": "function"
    },
    {
      "constant": true,
      "inputs": [],
      "name": "quorum",
      "outputs": [
        {
          "name": "",
          "type": "uint256"
        }
      ],
      "payable": false,
      "stateMutability": "view",
      "type": "function"
    },
    {
      "constant": true,
      "inputs": [],
      "name": "nextProposalId",
      "outputs": [
        {
          "name": "",
          "type": "uint256"
        }
      ],
      "payable": false,
      "stateMutability": "view",
      "type": "function"
    },
    {
      "constant": true,
      "inputs": [],
      "name": "totalShares",
      "outputs": [
        {
          "name": "",
          "type": "uint256"
        }
      ],
      "payable": false,
      "stateMutability": "view",
      "type": "function"
    },
    {
      "constant": true,
      "inputs": [],
      "name": "availableFunds",
      "outputs": [
        {
          "name": "",
          "type": "uint256"
        }
      ],
      "payable": false,
      "stateMutability": "view",
      "type": "function"
    },
    {
      "constant": true,
      "inputs": [
        {
          "name": "",
          "type": "address"
        }
      ],
      "name": "investors",
      "outputs": [
        {
          "name": "",
          "type": "bool"
        }
      ],
      "payable": false,
      "stateMutability": "view",
      "type": "function"
    },
    {
      "constant": true,
      "inputs": [
        {
          "name": "",
          "type": "address"
        },
        {
          "name": "",
          "type": "uint256"
        }
      ],
      "name": "votes",
      "outputs": [
        {
          "name": "",
          "type": "bool"
        }
      ],
      "payable": false,
      "stateMutability": "view",
      "type": "function"
    },
    {
      "constant": true,
      "inputs": [],
      "name": "voteTime",
      "outputs": [
        {
          "name": "",
          "type": "uint256"
        }
      ],
      "payable": false,
      "stateMutability": "view",
      "type": "function"
    },
    {
      "constant": true,
      "inputs": [
        {
          "name": "",
          "type": "address"
        }
      ],
      "name": "shares",
      "outputs": [
        {
          "name": "",
          "type": "uint256"
        }
      ],
      "payable": false,
      "stateMutability": "view",
      "type": "function"
    },
    {
      "constant": true,
      "inputs": [],
      "name": "contributionEnd",
      "outputs": [
        {
          "name": "",
          "type": "uint256"
        }
      ],
      "payable": false,
      "stateMutability": "view",
      "type": "function"
    },
    {
      "constant": true,
      "inputs": [],
      "name": "admin",
      "outputs": [
        {
          "name": "",
          "type": "address"
        }
      ],
      "payable": false,
      "stateMutability": "view",
      "type": "function"
    },
    {
      "inputs": [
        {
          "name": "contributionTime",
          "type": "uint256"
        },
        {
          "name": "_voteTime",
          "type": "uint256"
        },
        {
          "name": "_quorum",
          "type": "uint256"
        }
      ],
      "payable": false,
      "stateMutability": "nonpayable",
      "type": "constructor"
    },
    {
      "payable": true,
      "stateMutability": "payable",
      "type": "fallback"
    },
    {
      "constant": false,
      "inputs": [],
      "name": "contribute",
      "outputs": [],
      "payable": true,
      "stateMutability": "payable",
      "type": "function"
    },
    {
      "constant": false,
      "inputs": [
        {
          "name": "amount",
          "type": "uint256"
        }
      ],
      "name": "redeemShare",
      "outputs": [],
      "payable": false,
      "stateMutability": "nonpayable",
      "type": "function"
    },
    {
      "constant": false,
      "inputs": [
        {
          "name": "amount",
          "type": "uint256"
        },
        {
          "name": "to",
          "type": "address"
        }
      ],
      "name": "transferShare",
      "outputs": [],
      "payable": false,
      "stateMutability": "nonpayable",
      "type": "function"
    },
    {
      "constant": false,
      "inputs": [
        {
          "name": "name",
          "type": "string"
        },
        {
          "name": "amount",
          "type": "uint256"
        },
        {
          "name": "recipient",
          "type": "address"
        }
      ],
      "name": "createProposal",
      "outputs": [],
      "payable": false,
      "stateMutability": "nonpayable",
      "type": "function"
    },
    {
      "constant": false,
      "inputs": [
        {
          "name": "proposalId",
          "type": "uint256"
        }
      ],
      "name": "vote",
      "outputs": [],
      "payable": false,
      "stateMutability": "nonpayable",
      "type": "function"
    },
    {
      "constant": false,
      "inputs": [
        {
          "name": "proposalId",
          "type": "uint256"
        }
      ],
      "name": "executeProposal",
      "outputs": [],
      "payable": false,
      "stateMutability": "nonpayable",
      "type": "function"
    },
    {
      "constant": false,
      "inputs": [
        {
          "name": "amount",
          "type": "uint256"
        },
        {
          "name": "to",
          "type": "address"
        }
      ],
      "name": "withdrawEther",
      "outputs": [],
      "payable": false,
      "stateMutability": "nonpayable",
      "type": "function"
    }
  ],
  "bytecode": "0x608060405234801561001057600080fd5b506040516060806119f48339810180604052606081101561003057600080fd5b810190808051906020019092919080519060200190929190805190602001909291905050506000811180156100655750606481105b15156100d9576040517f08c379a00000000000000000000000000000000000000000000000000000000081526004018080602001828103825260208152602001807f71756f72756d206d757374206265206265747765656e203020616e642031303081525060200191505060405180910390fd5b824201600681905550816008819055508060098190555033600a60006101000a81548173ffffffffffffffffffffffffffffffffffffffff021916908373ffffffffffffffffffffffffffffffffffffffff1602179055505050506118b1806101436000396000f3fe608060405260043610610126576000357c0100000000000000000000000000000000000000000000000000000000900480636f7bc9be116100b2578063ce56c45411610081578063ce56c454146105f7578063ce7c2ac214610652578063d151b516146106b7578063d7bb99ba146106e2578063f851a440146106ec57610126565b80636f7bc9be146104b5578063868643df1461051e5780639f2524ee14610559578063bcf93dd6146105cc57610126565b80631703a018116100f95780631703a018146103175780632ab09d14146103425780633a98ef391461036d57806346fcff4c146103985780636ac1e01f146103c357610126565b80630121b93f14610138578063013cf08b14610173578063039383e6146102815780630d61b519146102dc575b34600560008282540192505081905550005b34801561014457600080fd5b506101716004803603602081101561015b57600080fd5b8101908080359060200190929190505050610743565b005b34801561017f57600080fd5b506101ac6004803603602081101561019657600080fd5b8101908080359060200190929190505050610a16565b60405180888152602001806020018781526020018673ffffffffffffffffffffffffffffffffffffffff1673ffffffffffffffffffffffffffffffffffffffff16815260200185815260200184815260200183151515158152602001828103825288818151815260200191508051906020019080838360005b83811015610240578082015181840152602081019050610225565b50505050905090810190601f16801561026d5780820380516001836020036101000a031916815260200191505b509850505050505050505060405180910390f35b34801561028d57600080fd5b506102da600480360360408110156102a457600080fd5b8101908080359060200190929190803573ffffffffffffffffffffffffffffffffffffffff169060200190929190505050610b1d565b005b3480156102e857600080fd5b50610315600480360360208110156102ff57600080fd5b8101908080359060200190929190505050610cc9565b005b34801561032357600080fd5b5061032c610f38565b6040518082815260200191505060405180910390f35b34801561034e57600080fd5b50610357610f3e565b6040518082815260200191505060405180910390f35b34801561037957600080fd5b50610382610f44565b6040518082815260200191505060405180910390f35b3480156103a457600080fd5b506103ad610f4a565b6040518082815260200191505060405180910390f35b3480156103cf57600080fd5b506104b3600480360360608110156103e657600080fd5b810190808035906020019064010000000081111561040357600080fd5b82018360208201111561041557600080fd5b8035906020019184600183028401116401000000008311171561043757600080fd5b91908080601f016020809104026020016040519081016040528093929190818152602001838380828437600081840152601f19601f82011690508083019250505050505050919291929080359060200190929190803573ffffffffffffffffffffffffffffffffffffffff169060200190929190505050610f50565b005b3480156104c157600080fd5b50610504600480360360208110156104d857600080fd5b81019080803573ffffffffffffffffffffffffffffffffffffffff1690602001909291905050506111d0565b604051808215151515815260200191505060405180910390f35b34801561052a57600080fd5b506105576004803603602081101561054157600080fd5b81019080803590602001909291905050506111f0565b005b34801561056557600080fd5b506105b26004803603604081101561057c57600080fd5b81019080803573ffffffffffffffffffffffffffffffffffffffff169060200190929190803590602001909291905050506113c8565b604051808215151515815260200191505060405180910390f35b3480156105d857600080fd5b506105e16113f7565b6040518082815260200191505060405180910390f35b34801561060357600080fd5b506106506004803603604081101561061a57600080fd5b8101908080359060200190929190803573ffffffffffffffffffffffffffffffffffffffff1690602001909291905050506113fd565b005b34801561065e57600080fd5b506106a16004803603602081101561067557600080fd5b81019080803573ffffffffffffffffffffffffffffffffffffffff1690602001909291905050506114d0565b6040518082815260200191505060405180910390f35b3480156106c357600080fd5b506106cc6114e8565b6040518082815260200191505060405180910390f35b6106ea6114ee565b005b3480156106f857600080fd5b50610701611610565b604051808273ffffffffffffffffffffffffffffffffffffffff1673ffffffffffffffffffffffffffffffffffffffff16815260200191505060405180910390f35b600115156000803373ffffffffffffffffffffffffffffffffffffffff1673ffffffffffffffffffffffffffffffffffffffff16815260200190815260200160002060009054906101000a900460ff16151514151561080a576040517f08c379a000000000000000000000000000000000000000000000000000000000815260040180806020018281038252600e8152602001807f6f6e6c7920696e766573746f727300000000000000000000000000000000000081525060200191505060405180910390fd5b600060026000838152602001908152602001600020905060001515600360003373ffffffffffffffffffffffffffffffffffffffff1673ffffffffffffffffffffffffffffffffffffffff168152602001908152602001600020600084815260200190815260200160002060009054906101000a900460ff1615151415156108dd576040517f08c379a000000000000000000000000000000000000000000000000000000000815260040180806020018281038252602a8152602001806117da602a913960400191505060405180910390fd5b806005015442101515610958576040517f08c379a00000000000000000000000000000000000000000000000000000000081526004018080602001828103825260208152602001807f63616e206f6e6c7920766f746520756e74696c2070726f706f73616c20656e6481525060200191505060405180910390fd5b6001600360003373ffffffffffffffffffffffffffffffffffffffff1673ffffffffffffffffffffffffffffffffffffffff168152602001908152602001600020600084815260200190815260200160002060006101000a81548160ff021916908315150217905550600160003373ffffffffffffffffffffffffffffffffffffffff1673ffffffffffffffffffffffffffffffffffffffff1681526020019081526020016000205481600401600082825401925050819055505050565b6002602052806000526040600020600091509050806000015490806001018054600181600116156101000203166002900480601f016020809104026020016040519081016040528092919081815260200182805460018160011615610100020316600290048015610ac85780601f10610a9d57610100808354040283529160200191610ac8565b820191906000526020600020905b815481529060010190602001808311610aab57829003601f168201915b5050505050908060020154908060030160009054906101000a900473ffffffffffffffffffffffffffffffffffffffff16908060040154908060050154908060060160009054906101000a900460ff16905087565b81600160003373ffffffffffffffffffffffffffffffffffffffff1673ffffffffffffffffffffffffffffffffffffffff1681526020019081526020016000205410151515610bd4576040517f08c379a00000000000000000000000000000000000000000000000000000000081526004018080602001828103825260118152602001807f6e6f7420656e6f7567682073686172657300000000000000000000000000000081525060200191505060405180910390fd5b81600160003373ffffffffffffffffffffffffffffffffffffffff1673ffffffffffffffffffffffffffffffffffffffff1681526020019081526020016000206000828254039250508190555081600160008373ffffffffffffffffffffffffffffffffffffffff1673ffffffffffffffffffffffffffffffffffffffff1681526020019081526020016000206000828254019250508190555060016000808373ffffffffffffffffffffffffffffffffffffffff1673ffffffffffffffffffffffffffffffffffffffff16815260200190815260200160002060006101000a81548160ff0219169083151502179055505050565b600a60009054906101000a900473ffffffffffffffffffffffffffffffffffffffff1673ffffffffffffffffffffffffffffffffffffffff163373ffffffffffffffffffffffffffffffffffffffff16141515610d8e576040517f08c379a000000000000000000000000000000000000000000000000000000000815260040180806020018281038252600a8152602001807f6f6e6c792061646d696e0000000000000000000000000000000000000000000081525060200191505060405180910390fd5b600060026000838152602001908152602001600020905080600501544210151515610e04576040517f08c379a00000000000000000000000000000000000000000000000000000000081526004018080602001828103825260298152602001806117b16029913960400191505060405180910390fd5b600015158160060160009054906101000a900460ff161515141515610e74576040517f08c379a000000000000000000000000000000000000000000000000000000000815260040180806020018281038252602a815260200180611804602a913960400191505060405180910390fd5b6009546004546064836004015402811515610e8b57fe5b0410151515610ee5576040517f08c379a000000000000000000000000000000000000000000000000000000000815260040180806020018281038252603181526020018061182e6031913960400191505060405180910390fd5b60018160060160006101000a81548160ff021916908315150217905550610f3481600201548260030160009054906101000a900473ffffffffffffffffffffffffffffffffffffffff16611636565b5050565b60095481565b60075481565b60045481565b60055481565b600115156000803373ffffffffffffffffffffffffffffffffffffffff1673ffffffffffffffffffffffffffffffffffffffff16815260200190815260200160002060009054906101000a900460ff161515141515611017576040517f08c379a000000000000000000000000000000000000000000000000000000000815260040180806020018281038252600e8152602001807f6f6e6c7920696e766573746f727300000000000000000000000000000000000081525060200191505060405180910390fd5b8160055410151515611091576040517f08c379a000000000000000000000000000000000000000000000000000000000815260040180806020018281038252600e8152602001807f616d6f756e7420746f6f2062696700000000000000000000000000000000000081525060200191505060405180910390fd5b60e06040519081016040528060075481526020018481526020018381526020018273ffffffffffffffffffffffffffffffffffffffff16815260200160008152602001600854420181526020016000151581525060026000600754815260200190815260200160002060008201518160000155602082015181600101908051906020019061112092919061170b565b506040820151816002015560608201518160030160006101000a81548173ffffffffffffffffffffffffffffffffffffffff021916908373ffffffffffffffffffffffffffffffffffffffff1602179055506080820151816004015560a0820151816005015560c08201518160060160006101000a81548160ff02191690831515021790555090505081600560008282540392505081905550600760008154809291906001019190505550505050565b60006020528060005260406000206000915054906101000a900460ff1681565b80600160003373ffffffffffffffffffffffffffffffffffffffff1673ffffffffffffffffffffffffffffffffffffffff16815260200190815260200160002054101515156112a7576040517f08c379a00000000000000000000000000000000000000000000000000000000081526004018080602001828103825260118152602001807f6e6f7420656e6f7567682073686172657300000000000000000000000000000081525060200191505060405180910390fd5b8060055410151515611321576040517f08c379a00000000000000000000000000000000000000000000000000000000081526004018080602001828103825260198152602001807f6e6f7420656e6f75676820617661696c61626c6546756e64730000000000000081525060200191505060405180910390fd5b80600160003373ffffffffffffffffffffffffffffffffffffffff1673ffffffffffffffffffffffffffffffffffffffff16815260200190815260200160002060008282540392505081905550806005600082825403925050819055503373ffffffffffffffffffffffffffffffffffffffff166108fc829081150290604051600060405180830381858888f193505050501580156113c4573d6000803e3d6000fd5b5050565b60036020528160005260406000206020528060005260406000206000915091509054906101000a900460ff1681565b60085481565b600a60009054906101000a900473ffffffffffffffffffffffffffffffffffffffff1673ffffffffffffffffffffffffffffffffffffffff163373ffffffffffffffffffffffffffffffffffffffff161415156114c2576040517f08c379a000000000000000000000000000000000000000000000000000000000815260040180806020018281038252600a8152602001807f6f6e6c792061646d696e0000000000000000000000000000000000000000000081525060200191505060405180910390fd5b6114cc8282611636565b5050565b60016020528060005260406000206000915090505481565b60065481565b6006544210151561154a576040517f08c379a000000000000000000000000000000000000000000000000000000000815260040180806020018281038252602781526020018061185f6027913960400191505060405180910390fd5b60016000803373ffffffffffffffffffffffffffffffffffffffff1673ffffffffffffffffffffffffffffffffffffffff16815260200190815260200160002060006101000a81548160ff02191690831515021790555034600160003373ffffffffffffffffffffffffffffffffffffffff1673ffffffffffffffffffffffffffffffffffffffff168152602001908152602001600020600082825401925050819055503460046000828254019250508190555034600560008282540192505081905550565b600a60009054906101000a900473ffffffffffffffffffffffffffffffffffffffff1681565b60055482111515156116b0576040517f08c379a00000000000000000000000000000000000000000000000000000000081526004018080602001828103825260198152602001807f6e6f7420656e6f75676820617661696c61626c6546756e64730000000000000081525060200191505060405180910390fd5b816005600082825403925050819055508073ffffffffffffffffffffffffffffffffffffffff166108fc839081150290604051600060405180830381858888f19350505050158015611706573d6000803e3d6000fd5b505050565b828054600181600116156101000203166002900490600052602060002090601f016020900481019282601f1061174c57805160ff191683800117855561177a565b8280016001018555821561177a579182015b8281111561177957825182559160200191906001019061175e565b5b509050611787919061178b565b5090565b6117ad91905b808211156117a9576000816000905550600101611791565b5090565b9056fe63616e6e6f74206578656375746520612070726f706f73616c206265666f726520656e642064617465696e766573746f722063616e206f6e6c7920766f7465206f6e636520666f7220612070726f706f73616c63616e6e6f74206578656375746520612070726f706f73616c20616c726561647920657865637574656463616e6e6f7420657865637574652070726f706f73616c207769746820766f74657320232062656c6f772071756f72756d63616e6e6f7420636f6e7472696275746520616674657220636f6e747269627574696f6e456e64a165627a7a72305820ae5b6b4c6d68e8f5c90a5cab3391c1ab4133b5ccda36303299d84aacfc80f5bd0029",
  "source": "pragma solidity ^0.5.2;\r\n\r\n/**\r\n * DAO contract:\r\n * 1. Collects investors money (ether) & allocate shares\r\n * 2. Keep track of investor contributions with shares\r\n * 3. Allow investors to transfer shares\r\n * 4. allow investment proposals to be created and voted\r\n * 5. execute successful investment proposals (i.e send money)\r\n */\r\n\r\ncontract DAO {\r\n    struct Proposal {\r\n        uint256 id;\r\n        string name;\r\n        uint256 amount;\r\n        address payable recipient;\r\n        uint256 votes;\r\n        uint256 end;\r\n        bool executed;\r\n    }\r\n\r\n    mapping(address => bool) public investors;\r\n    mapping(address => uint256) public shares; //no. of shares allocated by each investor\r\n    mapping(uint256 => Proposal) public proposals;\r\n    mapping(address => mapping(uint256 => bool)) public votes;\r\n    uint256 public totalShares;\r\n    uint256 public availableFunds;\r\n    uint256 public contributionEnd; //time when the DAO will stop to accept funds(closed funds)\r\n    uint256 public nextProposalId;\r\n    uint256 public voteTime;\r\n    uint256 public quorum;\r\n    address public admin;\r\n\r\n    constructor(\r\n        uint256 contributionTime,\r\n        uint256 _voteTime,\r\n        uint256 _quorum\r\n    ) public {\r\n        require(\r\n            _quorum > 0 && _quorum < 100,\r\n            \"quorum must be between 0 and 100\"\r\n        );\r\n        contributionEnd = now + contributionTime;\r\n        voteTime = _voteTime;\r\n        quorum = _quorum;\r\n        admin = msg.sender;\r\n    }\r\n\r\n    function contribute() external payable {\r\n        require(\r\n            now < contributionEnd,\r\n            \"cannot contribute after contributionEnd\"\r\n        );\r\n        investors[msg.sender] = true;\r\n        shares[msg.sender] += msg.value;\r\n        totalShares += msg.value;\r\n        availableFunds += msg.value;\r\n    }\r\n\r\n    function redeemShare(uint256 amount) external {\r\n        require(shares[msg.sender] >= amount, \"not enough shares\");\r\n        require(availableFunds >= amount, \"not enough availableFunds\");\r\n        shares[msg.sender] -= amount;\r\n        availableFunds -= amount;\r\n        msg.sender.transfer(amount);\r\n    }\r\n\r\n    function transferShare(uint256 amount, address to) external {\r\n        require(shares[msg.sender] >= amount, \"not enough shares\");\r\n        shares[msg.sender] -= amount;\r\n        shares[to] += amount;\r\n        investors[to] = true;\r\n    }\r\n\r\n    function createProposal(\r\n        string memory name,\r\n        uint256 amount,\r\n        address payable recipient\r\n    ) public onlyInvestors {\r\n        require(availableFunds >= amount, \"amount too big\");\r\n        proposals[nextProposalId] = Proposal(\r\n            nextProposalId,\r\n            name,\r\n            amount,\r\n            recipient,\r\n            0,\r\n            now + voteTime,\r\n            false\r\n        );\r\n        availableFunds -= amount;\r\n        nextProposalId++;\r\n    }\r\n\r\n    function vote(uint256 proposalId) external onlyInvestors {\r\n        Proposal storage proposal = proposals[proposalId];\r\n        require(\r\n            votes[msg.sender][proposalId] == false,\r\n            \"investor can only vote once for a proposal\"\r\n        );\r\n        require(now < proposal.end, \"can only vote until proposal end\");\r\n        votes[msg.sender][proposalId] = true;\r\n        proposal.votes += shares[msg.sender];\r\n    }\r\n\r\n    function executeProposal(uint256 proposalId) external onlyAdmin {\r\n        Proposal storage proposal = proposals[proposalId];\r\n        require(\r\n            now >= proposal.end,\r\n            \"cannot execute a proposal before end date\"\r\n        );\r\n        require(\r\n            proposal.executed == false,\r\n            \"cannot execute a proposal already executed\"\r\n        );\r\n        require(\r\n            (proposal.votes * 100) / totalShares >= quorum,\r\n            \"cannot execute proposal with votes # below quorum\"\r\n        );\r\n        proposal.executed = true;\r\n        _transferEther(proposal.amount, proposal.recipient);\r\n    }\r\n\r\n    function withdrawEther(uint256 amount, address payable to)\r\n        external\r\n        onlyAdmin\r\n    {\r\n        _transferEther(amount, to);\r\n    }\r\n\r\n    //For ether returns of proposal investments\r\n    function() external payable {\r\n        availableFunds += msg.value;\r\n    }\r\n\r\n    function _transferEther(uint256 amount, address payable to) internal {\r\n        require(amount <= availableFunds, \"not enough availableFunds\");\r\n        availableFunds -= amount;\r\n        to.transfer(amount);\r\n    }\r\n\r\n    modifier onlyInvestors() {\r\n        require(investors[msg.sender] == true, \"only investors\");\r\n        _;\r\n    }\r\n    modifier onlyAdmin() {\r\n        require(msg.sender == admin, \"only admin\");\r\n        _;\r\n    }\r\n}\r\n",
  "sourcePath": "D:\\Github\\d-app-30\\project15\\contracts\\DAO.sol",
  "compiler": {
    "name": "solc",
    "version": "0.5.2+commit.1df8f40c.Emscripten.clang"
  },
  "schemaVersion": "3.4.3",
  "updatedAt": "2022-04-11T20:07:56.956Z",
  "networkType": "ethereum",
  "devdoc": {
    "methods": {}
  },
  "userdoc": {
    "methods": {},
    "notice": "DAO contract:\r 1. Collects investors money (ether) & allocate shares\r 2. Keep track of investor contributions with shares\r 3. Allow investors to transfer shares\r 4. allow investment proposals to be created and voted\r 5. execute successful investment proposals (i.e send money)\r"
  }
}