{
  "contractName": "SplitPayment",
  "abi": [
    {
      "inputs": [
        {
          "internalType": "address",
          "name": "_owner",
          "type": "address"
        }
      ],
      "payable": false,
      "stateMutability": "nonpayable",
      "type": "constructor"
    },
    {
      "constant": true,
      "inputs": [],
      "name": "owner",
      "outputs": [
        {
          "internalType": "address",
          "name": "",
          "type": "address"
        }
      ],
      "payable": false,
      "stateMutability": "view",
      "type": "function"
    },
    {
      "constant": false,
      "inputs": [
        {
          "internalType": "address payable[]",
          "name": "to",
          "type": "address[]"
        },
        {
          "internalType": "uint256[]",
          "name": "amount",
          "type": "uint256[]"
        }
      ],
      "name": "send",
      "outputs": [],
      "payable": true,
      "stateMutability": "payable",
      "type": "function"
    }
  ],
  "bytecode": "0x608060405234801561001057600080fd5b506040516104933803806104938339818101604052602081101561003357600080fd5b8101908080519060200190929190505050806000806101000a81548173ffffffffffffffffffffffffffffffffffffffff021916908373ffffffffffffffffffffffffffffffffffffffff160217905550506103ff806100946000396000f3fe6080604052600436106100295760003560e01c80638da5cb5b1461002e578063a645ff5f14610085575b600080fd5b34801561003a57600080fd5b506100436101d1565b604051808273ffffffffffffffffffffffffffffffffffffffff1673ffffffffffffffffffffffffffffffffffffffff16815260200191505060405180910390f35b6101cf6004803603604081101561009b57600080fd5b81019080803590602001906401000000008111156100b857600080fd5b8201836020820111156100ca57600080fd5b803590602001918460208302840111640100000000831117156100ec57600080fd5b919080806020026020016040519081016040528093929190818152602001838360200280828437600081840152601f19601f8201169050808301925050505050505091929192908035906020019064010000000081111561014c57600080fd5b82018360208201111561015e57600080fd5b8035906020019184602083028401116401000000008311171561018057600080fd5b919080806020026020016040519081016040528093929190818152602001838360200280828437600081840152601f19601f8201169050808301925050505050505091929192905050506101f6565b005b6000809054906101000a900473ffffffffffffffffffffffffffffffffffffffff1681565b6000809054906101000a900473ffffffffffffffffffffffffffffffffffffffff1673ffffffffffffffffffffffffffffffffffffffff163373ffffffffffffffffffffffffffffffffffffffff16146102b8576040517f08c379a00000000000000000000000000000000000000000000000000000000081526004018080602001828103825260208152602001807f6f6e6c79206f776e65722063616e2073656e64207472616e73616374696f6e7381525060200191505060405180910390fd5b8051825114610312576040517f08c379a000000000000000000000000000000000000000000000000000000000815260040180806020018281038252602a8152602001806103a1602a913960400191505060405180910390fd5b60008090505b825181101561039b5782818151811061032d57fe5b602002602001015173ffffffffffffffffffffffffffffffffffffffff166108fc83838151811061035a57fe5b60200260200101519081150290604051600060405180830381858888f1935050505015801561038d573d6000803e3d6000fd5b508080600101915050610318565b50505056fe746f20616e6420616d6f756e7420617272617973206d75737420686176652073616d65206c656e677468a265627a7a723158205f280eedead209c4cd5fb9a59f8f1a87e25214bec98f6ae2905e049d6925c58664736f6c63430005100032",
  "source": "pragma solidity ^0.5.0;\r\n\r\ncontract SplitPayment {\r\n    address public owner;\r\n\r\n    constructor(address _owner) public {\r\n        owner = _owner;\r\n    }\r\n\r\n    function send(address payable[] memory to, uint256[] memory amount)\r\n        public\r\n        payable\r\n        onlyOwner\r\n    {\r\n        require(\r\n            to.length == amount.length,\r\n            \"to and amount arrays must have same length\"\r\n        );\r\n        for (uint256 i = 0; i < to.length; i++) {\r\n            to[i].transfer(amount[i]);\r\n        }\r\n    }\r\n\r\n    modifier onlyOwner() {\r\n        require(msg.sender == owner, \"only owner can send transactions\");\r\n        _;\r\n    }\r\n}\r\n",
  "sourcePath": "D:\\Github\\d-app-30\\project7\\contracts\\SplitPayment.sol",
  "compiler": {
    "name": "solc",
    "version": "0.5.16+commit.9c3226ce.Emscripten.clang"
  },
  "schemaVersion": "3.4.3",
  "updatedAt": "2022-04-01T08:40:53.244Z",
  "networkType": "ethereum",
  "devdoc": {
    "methods": {}
  },
  "userdoc": {
    "methods": {}
  }
}