{
  "contractName": "Crud",
  "abi": [
    {
      "constant": true,
      "inputs": [
        {
          "name": "",
          "type": "uint256"
        }
      ],
      "name": "users",
      "outputs": [
        {
          "name": "id",
          "type": "uint256"
        },
        {
          "name": "name",
          "type": "string"
        }
      ],
      "payable": false,
      "stateMutability": "view",
      "type": "function"
    },
    {
      "constant": true,
      "inputs": [],
      "name": "nextId",
      "outputs": [
        {
          "name": "",
          "type": "uint256"
        }
      ],
      "payable": false,
      "stateMutability": "view",
      "type": "function"
    },
    {
      "constant": false,
      "inputs": [
        {
          "name": "name",
          "type": "string"
        }
      ],
      "name": "create",
      "outputs": [],
      "payable": false,
      "stateMutability": "nonpayable",
      "type": "function"
    },
    {
      "constant": true,
      "inputs": [
        {
          "name": "id",
          "type": "uint256"
        }
      ],
      "name": "read",
      "outputs": [
        {
          "name": "",
          "type": "uint256"
        },
        {
          "name": "",
          "type": "string"
        }
      ],
      "payable": false,
      "stateMutability": "view",
      "type": "function"
    },
    {
      "constant": false,
      "inputs": [
        {
          "name": "id",
          "type": "uint256"
        },
        {
          "name": "name",
          "type": "string"
        }
      ],
      "name": "update",
      "outputs": [],
      "payable": false,
      "stateMutability": "nonpayable",
      "type": "function"
    },
    {
      "constant": false,
      "inputs": [
        {
          "name": "id",
          "type": "uint256"
        }
      ],
      "name": "destroy",
      "outputs": [],
      "payable": false,
      "stateMutability": "nonpayable",
      "type": "function"
    }
  ],
  "bytecode": "0x608060405234801561001057600080fd5b506108d8806100206000396000f3fe608060405260043610610078576000357c0100000000000000000000000000000000000000000000000000000000900463ffffffff168063365b98b21461007d57806361b8ce8c146101385780639d11877014610163578063b6a46b3b1461019e578063ed2e5a9714610266578063f745630f14610321575b600080fd5b34801561008957600080fd5b506100b6600480360360208110156100a057600080fd5b81019080803590602001909291905050506103f3565b6040518083815260200180602001828103825283818151815260200191508051906020019080838360005b838110156100fc5780820151818401526020810190506100e1565b50505050905090810190601f1680156101295780820380516001836020036101000a031916815260200191505b50935050505060405180910390f35b34801561014457600080fd5b5061014d6104be565b6040518082815260200191505060405180910390f35b34801561016f57600080fd5b5061019c6004803603602081101561018657600080fd5b81019080803590602001909291905050506104c4565b005b3480156101aa57600080fd5b50610264600480360360208110156101c157600080fd5b81019080803590602001906401000000008111156101de57600080fd5b8201836020820111156101f057600080fd5b8035906020019184600183028401116401000000008311171561021257600080fd5b91908080601f016020809104026020016040519081016040528093929190818152602001838380828437600081840152601f19601f8201169050808301925050505050505091929192905050506104ff565b005b34801561027257600080fd5b5061029f6004803603602081101561028957600080fd5b8101908080359060200190929190505050610582565b6040518083815260200180602001828103825283818151815260200191508051906020019080838360005b838110156102e55780820151818401526020810190506102ca565b50505050905090810190601f1680156103125780820380516001836020036101000a031916815260200191505b50935050505060405180910390f35b34801561032d57600080fd5b506103f16004803603604081101561034457600080fd5b81019080803590602001909291908035906020019064010000000081111561036b57600080fd5b82018360208201111561037d57600080fd5b8035906020019184600183028401116401000000008311171561039f57600080fd5b91908080601f016020809104026020016040519081016040528093929190818152602001838380828437600081840152601f19601f8201169050808301925050505050505091929192905050506106bc565b005b60008181548110151561040257fe5b9060005260206000209060020201600091509050806000015490806001018054600181600116156101000203166002900480601f0160208091040260200160405190810160405280929190818152602001828054600181600116156101000203166002900480156104b45780601f10610489576101008083540402835291602001916104b4565b820191906000526020600020905b81548152906001019060200180831161049757829003601f168201915b5050505050905082565b60015481565b6000818154811015156104d357fe5b90600052602060002090600202016000808201600090556001820160006104fa919061073f565b505050565b6000604080519081016040528060015481526020018381525090806001815401808255809150509060018203906000526020600020906002020160009091929091909150600082015181600001556020820151816001019080519060200190610569929190610787565b5050505060016000815480929190600101919050555050565b6000606060008090505b6000805490508110156106b557836000828154811015156105a957fe5b90600052602060002090600202016000015414156106a8576000818154811015156105d057fe5b9060005260206000209060020201600001546000828154811015156105f157fe5b9060005260206000209060020201600101808054600181600116156101000203166002900480601f0160208091040260200160405190810160405280929190818152602001828054600181600116156101000203166002900480156106975780601f1061066c57610100808354040283529160200191610697565b820191906000526020600020905b81548152906001019060200180831161067a57829003601f168201915b5050505050905092509250506106b7565b808060010191505061058c565b505b915091565b60008090505b60008054905081101561073a57826000828154811015156106df57fe5b906000526020600020906002020160000154141561072d578160008281548110151561070757fe5b9060005260206000209060020201600101908051906020019061072b929190610807565b505b80806001019150506106c2565b505050565b50805460018160011615610100020316600290046000825580601f106107655750610784565b601f0160209004906000526020600020908101906107839190610887565b5b50565b828054600181600116156101000203166002900490600052602060002090601f016020900481019282601f106107c857805160ff19168380011785556107f6565b828001600101855582156107f6579182015b828111156107f55782518255916020019190600101906107da565b5b5090506108039190610887565b5090565b828054600181600116156101000203166002900490600052602060002090601f016020900481019282601f1061084857805160ff1916838001178555610876565b82800160010185558215610876579182015b8281111561087557825182559160200191906001019061085a565b5b5090506108839190610887565b5090565b6108a991905b808211156108a557600081600090555060010161088d565b5090565b9056fea165627a7a723058201b4198873d41f4662dd00981750e7ece78899d5b97891e3beab1d532caba2e610029",
  "source": "// SPDX-License-Identifier: MIT\r\npragma solidity ^0.5.0;\r\n\r\ncontract Crud {\r\n    struct User {\r\n        uint256 id;\r\n        string name;\r\n    }\r\n    User[] public users;\r\n    uint256 public nextId;\r\n\r\n    function create(string memory name) public {\r\n        users.push(User(nextId, name));\r\n        nextId++;\r\n    }\r\n\r\n    function read(uint256 id) public view returns (uint256, string memory) {\r\n        for (uint256 i = 0; i < users.length; i++) {\r\n            if (users[i].id == id) {\r\n                return (users[i].id, users[i].name);\r\n            }\r\n        }\r\n    }\r\n\r\n    function update(uint256 id, string memory name) public {\r\n        for (uint256 i = 0; i < users.length; i++) {\r\n            if (users[i].id == id) {\r\n                users[i].name = name;\r\n            }\r\n        }\r\n    }\r\n\r\n    function destroy(uint256 id) public {\r\n        delete users[id];\r\n    }\r\n}\r\n",
  "sourcePath": "D:\\Github\\d-app-30\\project5\\contracts\\Crud.sol",
  "compiler": {
    "name": "solc",
    "version": "0.5.0+commit.1d4f565a.Emscripten.clang"
  },
  "schemaVersion": "3.4.3",
  "updatedAt": "2022-03-30T07:42:11.460Z",
  "devdoc": {
    "methods": {}
  },
  "userdoc": {
    "methods": {}
  }
}